{
  "contractName": "DragonToken",
  "abi": [
    {
      "inputs": [
        {
          "internalType": "string",
          "name": "_name",
          "type": "string"
        },
        {
          "internalType": "string",
          "name": "_symbol",
          "type": "string"
        }
      ],
      "stateMutability": "nonpayable",
      "type": "constructor"
    },
    {
      "anonymous": false,
      "inputs": [
        {
          "indexed": true,
          "internalType": "address",
          "name": "owner",
          "type": "address"
        },
        {
          "indexed": true,
          "internalType": "address",
          "name": "approved",
          "type": "address"
        },
        {
          "indexed": true,
          "internalType": "uint256",
          "name": "tokenId",
          "type": "uint256"
        }
      ],
      "name": "Approval",
      "type": "event"
    },
    {
      "anonymous": false,
      "inputs": [
        {
          "indexed": true,
          "internalType": "address",
          "name": "owner",
          "type": "address"
        },
        {
          "indexed": true,
          "internalType": "address",
          "name": "operator",
          "type": "address"
        },
        {
          "indexed": false,
          "internalType": "bool",
          "name": "approved",
          "type": "bool"
        }
      ],
      "name": "ApprovalForAll",
      "type": "event"
    },
    {
      "anonymous": false,
      "inputs": [
        {
          "indexed": true,
          "internalType": "address",
          "name": "owner",
          "type": "address"
        },
        {
          "indexed": false,
          "internalType": "uint256",
          "name": "id",
          "type": "uint256"
        },
        {
          "indexed": false,
          "internalType": "uint256",
          "name": "dna",
          "type": "uint256"
        }
      ],
      "name": "NewDragon",
      "type": "event"
    },
    {
      "anonymous": false,
      "inputs": [
        {
          "indexed": true,
          "internalType": "address",
          "name": "previousOwner",
          "type": "address"
        },
        {
          "indexed": true,
          "internalType": "address",
          "name": "newOwner",
          "type": "address"
        }
      ],
      "name": "OwnershipTransferred",
      "type": "event"
    },
    {
      "anonymous": false,
      "inputs": [
        {
          "indexed": true,
          "internalType": "address",
          "name": "from",
          "type": "address"
        },
        {
          "indexed": true,
          "internalType": "address",
          "name": "to",
          "type": "address"
        },
        {
          "indexed": true,
          "internalType": "uint256",
          "name": "tokenId",
          "type": "uint256"
        }
      ],
      "name": "Transfer",
      "type": "event"
    },
    {
      "inputs": [
        {
          "internalType": "address",
          "name": "to",
          "type": "address"
        },
        {
          "internalType": "uint256",
          "name": "tokenId",
          "type": "uint256"
        }
      ],
      "name": "approve",
      "outputs": [],
      "stateMutability": "nonpayable",
      "type": "function"
    },
    {
      "inputs": [
        {
          "internalType": "address",
          "name": "owner",
          "type": "address"
        }
      ],
      "name": "balanceOf",
      "outputs": [
        {
          "internalType": "uint256",
          "name": "",
          "type": "uint256"
        }
      ],
      "stateMutability": "view",
      "type": "function",
      "constant": true
    },
    {
      "inputs": [
        {
          "internalType": "uint256",
          "name": "",
          "type": "uint256"
        }
      ],
      "name": "dragons",
      "outputs": [
        {
          "internalType": "string",
          "name": "name",
          "type": "string"
        },
        {
          "internalType": "uint256",
          "name": "id",
          "type": "uint256"
        },
        {
          "internalType": "uint256",
          "name": "dna",
          "type": "uint256"
        },
        {
          "internalType": "uint8",
          "name": "level",
          "type": "uint8"
        },
        {
          "internalType": "uint8",
          "name": "rarity",
          "type": "uint8"
        },
        {
          "internalType": "uint256",
          "name": "winCount",
          "type": "uint256"
        },
        {
          "internalType": "uint256",
          "name": "lossCount",
          "type": "uint256"
        },
        {
          "internalType": "uint256",
          "name": "totalBattles",
          "type": "uint256"
        },
        {
          "internalType": "uint256",
          "name": "coolDonwnTime",
          "type": "uint256"
        }
      ],
      "stateMutability": "view",
      "type": "function",
      "constant": true
    },
    {
      "inputs": [
        {
          "internalType": "uint256",
          "name": "tokenId",
          "type": "uint256"
        }
      ],
      "name": "getApproved",
      "outputs": [
        {
          "internalType": "address",
          "name": "",
          "type": "address"
        }
      ],
      "stateMutability": "view",
      "type": "function",
      "constant": true
    },
    {
      "inputs": [
        {
          "internalType": "address",
          "name": "owner",
          "type": "address"
        },
        {
          "internalType": "address",
          "name": "operator",
          "type": "address"
        }
      ],
      "name": "isApprovedForAll",
      "outputs": [
        {
          "internalType": "bool",
          "name": "",
          "type": "bool"
        }
      ],
      "stateMutability": "view",
      "type": "function",
      "constant": true
    },
    {
      "inputs": [],
      "name": "name",
      "outputs": [
        {
          "internalType": "string",
          "name": "",
          "type": "string"
        }
      ],
      "stateMutability": "view",
      "type": "function",
      "constant": true
    },
    {
      "inputs": [],
      "name": "owner",
      "outputs": [
        {
          "internalType": "address",
          "name": "",
          "type": "address"
        }
      ],
      "stateMutability": "view",
      "type": "function",
      "constant": true
    },
    {
      "inputs": [
        {
          "internalType": "uint256",
          "name": "tokenId",
          "type": "uint256"
        }
      ],
      "name": "ownerOf",
      "outputs": [
        {
          "internalType": "address",
          "name": "",
          "type": "address"
        }
      ],
      "stateMutability": "view",
      "type": "function",
      "constant": true
    },
    {
      "inputs": [],
      "name": "renounceOwnership",
      "outputs": [],
      "stateMutability": "nonpayable",
      "type": "function"
    },
    {
      "inputs": [
        {
          "internalType": "address",
          "name": "from",
          "type": "address"
        },
        {
          "internalType": "address",
          "name": "to",
          "type": "address"
        },
        {
          "internalType": "uint256",
          "name": "tokenId",
          "type": "uint256"
        }
      ],
      "name": "safeTransferFrom",
      "outputs": [],
      "stateMutability": "nonpayable",
      "type": "function"
    },
    {
      "inputs": [
        {
          "internalType": "address",
          "name": "from",
          "type": "address"
        },
        {
          "internalType": "address",
          "name": "to",
          "type": "address"
        },
        {
          "internalType": "uint256",
          "name": "tokenId",
          "type": "uint256"
        },
        {
          "internalType": "bytes",
          "name": "_data",
          "type": "bytes"
        }
      ],
      "name": "safeTransferFrom",
      "outputs": [],
      "stateMutability": "nonpayable",
      "type": "function"
    },
    {
      "inputs": [
        {
          "internalType": "address",
          "name": "operator",
          "type": "address"
        },
        {
          "internalType": "bool",
          "name": "approved",
          "type": "bool"
        }
      ],
      "name": "setApprovalForAll",
      "outputs": [],
      "stateMutability": "nonpayable",
      "type": "function"
    },
    {
      "inputs": [
        {
          "internalType": "bytes4",
          "name": "interfaceId",
          "type": "bytes4"
        }
      ],
      "name": "supportsInterface",
      "outputs": [
        {
          "internalType": "bool",
          "name": "",
          "type": "bool"
        }
      ],
      "stateMutability": "view",
      "type": "function",
      "constant": true
    },
    {
      "inputs": [],
      "name": "symbol",
      "outputs": [
        {
          "internalType": "string",
          "name": "",
          "type": "string"
        }
      ],
      "stateMutability": "view",
      "type": "function",
      "constant": true
    },
    {
      "inputs": [
        {
          "internalType": "uint256",
          "name": "tokenId",
          "type": "uint256"
        }
      ],
      "name": "tokenURI",
      "outputs": [
        {
          "internalType": "string",
          "name": "",
          "type": "string"
        }
      ],
      "stateMutability": "view",
      "type": "function",
      "constant": true
    },
    {
      "inputs": [
        {
          "internalType": "address",
          "name": "from",
          "type": "address"
        },
        {
          "internalType": "address",
          "name": "to",
          "type": "address"
        },
        {
          "internalType": "uint256",
          "name": "tokenId",
          "type": "uint256"
        }
      ],
      "name": "transferFrom",
      "outputs": [],
      "stateMutability": "nonpayable",
      "type": "function"
    },
    {
      "inputs": [
        {
          "internalType": "address",
          "name": "newOwner",
          "type": "address"
        }
      ],
      "name": "transferOwnership",
      "outputs": [],
      "stateMutability": "nonpayable",
      "type": "function"
    },
    {
      "inputs": [
        {
          "internalType": "uint256",
          "name": "_fee",
          "type": "uint256"
        }
      ],
      "name": "updateFees",
      "outputs": [],
      "stateMutability": "nonpayable",
      "type": "function"
    },
    {
      "inputs": [],
      "name": "getFee",
      "outputs": [
        {
          "internalType": "uint256",
          "name": "",
          "type": "uint256"
        }
      ],
      "stateMutability": "view",
      "type": "function",
      "constant": true
    },
    {
      "inputs": [],
      "name": "withdraw",
      "outputs": [],
      "stateMutability": "payable",
      "type": "function",
      "payable": true
    },
    {
      "inputs": [
        {
          "internalType": "string",
          "name": "_name",
          "type": "string"
        }
      ],
      "name": "createRandomDragon",
      "outputs": [],
      "stateMutability": "payable",
      "type": "function",
      "payable": true
    },
    {
      "inputs": [
        {
          "internalType": "address",
          "name": "_owner",
          "type": "address"
        }
      ],
      "name": "getDragonsOfNotUser",
      "outputs": [
        {
          "components": [
            {
              "internalType": "string",
              "name": "name",
              "type": "string"
            },
            {
              "internalType": "uint256",
              "name": "id",
              "type": "uint256"
            },
            {
              "internalType": "uint256",
              "name": "dna",
              "type": "uint256"
            },
            {
              "internalType": "uint8",
              "name": "level",
              "type": "uint8"
            },
            {
              "internalType": "uint8",
              "name": "rarity",
              "type": "uint8"
            },
            {
              "internalType": "uint256",
              "name": "winCount",
              "type": "uint256"
            },
            {
              "internalType": "uint256",
              "name": "lossCount",
              "type": "uint256"
            },
            {
              "internalType": "uint256",
              "name": "totalBattles",
              "type": "uint256"
            },
            {
              "internalType": "uint256",
              "name": "coolDonwnTime",
              "type": "uint256"
            }
          ],
          "internalType": "struct DragonToken.Dragon[]",
          "name": "",
          "type": "tuple[]"
        }
      ],
      "stateMutability": "view",
      "type": "function",
      "constant": true
    },
    {
      "inputs": [
        {
          "internalType": "uint256",
          "name": "_id",
          "type": "uint256"
        }
      ],
      "name": "getDragonById",
      "outputs": [
        {
          "components": [
            {
              "internalType": "string",
              "name": "name",
              "type": "string"
            },
            {
              "internalType": "uint256",
              "name": "id",
              "type": "uint256"
            },
            {
              "internalType": "uint256",
              "name": "dna",
              "type": "uint256"
            },
            {
              "internalType": "uint8",
              "name": "level",
              "type": "uint8"
            },
            {
              "internalType": "uint8",
              "name": "rarity",
              "type": "uint8"
            },
            {
              "internalType": "uint256",
              "name": "winCount",
              "type": "uint256"
            },
            {
              "internalType": "uint256",
              "name": "lossCount",
              "type": "uint256"
            },
            {
              "internalType": "uint256",
              "name": "totalBattles",
              "type": "uint256"
            },
            {
              "internalType": "uint256",
              "name": "coolDonwnTime",
              "type": "uint256"
            }
          ],
          "internalType": "struct DragonToken.Dragon",
          "name": "",
          "type": "tuple"
        }
      ],
      "stateMutability": "view",
      "type": "function",
      "constant": true
    },
    {
      "inputs": [],
      "name": "getDragons",
      "outputs": [
        {
          "components": [
            {
              "internalType": "string",
              "name": "name",
              "type": "string"
            },
            {
              "internalType": "uint256",
              "name": "id",
              "type": "uint256"
            },
            {
              "internalType": "uint256",
              "name": "dna",
              "type": "uint256"
            },
            {
              "internalType": "uint8",
              "name": "level",
              "type": "uint8"
            },
            {
              "internalType": "uint8",
              "name": "rarity",
              "type": "uint8"
            },
            {
              "internalType": "uint256",
              "name": "winCount",
              "type": "uint256"
            },
            {
              "internalType": "uint256",
              "name": "lossCount",
              "type": "uint256"
            },
            {
              "internalType": "uint256",
              "name": "totalBattles",
              "type": "uint256"
            },
            {
              "internalType": "uint256",
              "name": "coolDonwnTime",
              "type": "uint256"
            }
          ],
          "internalType": "struct DragonToken.Dragon[]",
          "name": "",
          "type": "tuple[]"
        }
      ],
      "stateMutability": "view",
      "type": "function",
      "constant": true
    },
    {
      "inputs": [
        {
          "internalType": "address",
          "name": "_owner",
          "type": "address"
        }
      ],
      "name": "getOwnerDragons",
      "outputs": [
        {
          "components": [
            {
              "internalType": "string",
              "name": "name",
              "type": "string"
            },
            {
              "internalType": "uint256",
              "name": "id",
              "type": "uint256"
            },
            {
              "internalType": "uint256",
              "name": "dna",
              "type": "uint256"
            },
            {
              "internalType": "uint8",
              "name": "level",
              "type": "uint8"
            },
            {
              "internalType": "uint8",
              "name": "rarity",
              "type": "uint8"
            },
            {
              "internalType": "uint256",
              "name": "winCount",
              "type": "uint256"
            },
            {
              "internalType": "uint256",
              "name": "lossCount",
              "type": "uint256"
            },
            {
              "internalType": "uint256",
              "name": "totalBattles",
              "type": "uint256"
            },
            {
              "internalType": "uint256",
              "name": "coolDonwnTime",
              "type": "uint256"
            }
          ],
          "internalType": "struct DragonToken.Dragon[]",
          "name": "",
          "type": "tuple[]"
        }
      ],
      "stateMutability": "view",
      "type": "function",
      "constant": true
    },
    {
      "inputs": [
        {
          "internalType": "uint256",
          "name": "_id",
          "type": "uint256"
        }
      ],
      "name": "levelUp",
      "outputs": [],
      "stateMutability": "nonpayable",
      "type": "function"
    },
    {
      "inputs": [
        {
          "internalType": "uint256",
          "name": "_attackerId",
          "type": "uint256"
        },
        {
          "internalType": "uint256",
          "name": "_defenderId",
          "type": "uint256"
        }
      ],
      "name": "fight",
      "outputs": [],
      "stateMutability": "nonpayable",
      "type": "function"
    }
  ],
  "bytecode": "0x6080604052662386f26fc1000060085560006009556046600a556064600b55662386f26fc10000600c553480156200003657600080fd5b5060405162002fa538038062002fa5833981016040819052620000599162000266565b8151829082906200007290600090602085019062000115565b5080516200008890600190602084019062000115565b505050620000b7620000a8620000bf640100000000026401000000009004565b640100000000620000c3810204565b505062000352565b3390565b60068054600160a060020a03838116600160a060020a0319831681179093556040519116919082907f8be0079c531659141344cd1fd0a4f28419497f9722a3daafe3b4186f6b6457e090600090a35050565b8280546200012390620002cd565b90600052602060002090601f01602090048101928262000147576000855562000192565b82601f106200016257805160ff191683800117855562000192565b8280016001018555821562000192579182015b828111156200019257825182559160200191906001019062000175565b50620001a0929150620001a4565b5090565b5b80821115620001a05760008155600101620001a5565b600082601f830112620001cc578081fd5b81516001604060020a0380821115620001e957620001e962000323565b6040516020601f8401601f191682018101838111838210171562000211576200021162000323565b604052838252858401810187101562000228578485fd5b8492505b838310156200024b57858301810151828401820152918201916200022c565b838311156200025c57848185840101525b5095945050505050565b6000806040838503121562000279578182fd5b82516001604060020a038082111562000290578384fd5b6200029e86838701620001bb565b93506020850151915080821115620002b4578283fd5b50620002c385828601620001bb565b9150509250929050565b600281046001821680620002e257607f821691505b602082108114156200031d577f4e487b7100000000000000000000000000000000000000000000000000000000600052602260045260246000fd5b50919050565b7f4e487b7100000000000000000000000000000000000000000000000000000000600052604160045260246000fd5b612c4380620003626000396000f3fe6080604052600436106101b9576000357c01000000000000000000000000000000000000000000000000000000009004806378dacee111610109578063ca39e5ef116100a7578063e985e9c511610081578063e985e9c5146104bd578063f2fde38b146104dd578063f8caf6c7146104fd578063fdccc83e14610512576101b9565b8063ca39e5ef14610453578063ced72f8714610473578063d2a59d6914610488576101b9565b8063a22cb465116100e3578063a22cb465146103c6578063b88d4fde146103e6578063c87b56dd14610406578063c9cf557014610426576101b9565b806378dacee11461037c5780638da5cb5b1461039c57806395d89b41146103b1576101b9565b806323b872dd116101765780636352211e116101505780636352211e146102fa57806370a082311461031a578063715018a6146103475780637542df841461035c576101b9565b806323b872dd146102b25780633ccfd60b146102d257806342842e0e146102da576101b9565b806301ffc9a7146101be57806306fdde03146101f4578063081812fc14610216578063095ea7b3146102435780630ce90ec2146102655780632235e2a414610285575b600080fd5b3480156101ca57600080fd5b506101de6101d936600461223c565b610525565b6040516101eb91906124da565b60405180910390f35b34801561020057600080fd5b5061020961059f565b6040516101eb91906124e5565b34801561022257600080fd5b506102366102313660046122ba565b610631565b6040516101eb919061242a565b34801561024f57600080fd5b5061026361025e366004612213565b610680565b005b34801561027157600080fd5b506102636102803660046122ba565b61071e565b34801561029157600080fd5b506102a56102a03660046120d9565b6107a6565b6040516101eb919061247a565b3480156102be57600080fd5b506102636102cd366004612125565b6109c8565b610263610a03565b3480156102e657600080fd5b506102636102f5366004612125565b610a8c565b34801561030657600080fd5b506102366103153660046122ba565b610aa7565b34801561032657600080fd5b5061033a6103353660046120d9565b610adf565b6040516101eb9190612a99565b34801561035357600080fd5b50610263610b26565b34801561036857600080fd5b506102a56103773660046120d9565b610b74565b34801561038857600080fd5b506102636103973660046122ba565b610d99565b3480156103a857600080fd5b50610236610de0565b3480156103bd57600080fd5b50610209610def565b3480156103d257600080fd5b506102636103e13660046121d9565b610dfe565b3480156103f257600080fd5b50610263610401366004612160565b610ecf565b34801561041257600080fd5b506102096104213660046122ba565b610f11565b34801561043257600080fd5b506104466104413660046122ba565b610f97565b6040516101eb9190612a86565b34801561045f57600080fd5b5061026361046e3660046122d2565b6110d9565b34801561047f57600080fd5b5061033a611275565b34801561049457600080fd5b506104a86104a33660046122ba565b61127b565b6040516101eb999897969594939291906124f8565b3480156104c957600080fd5b506101de6104d83660046120f3565b61136b565b3480156104e957600080fd5b506102636104f83660046120d9565b611399565b34801561050957600080fd5b506102a5611410565b610263610520366004612274565b611561565b6000600160e060020a031982167f80ac58cd0000000000000000000000000000000000000000000000000000000014806105885750600160e060020a031982167f5b5e139f00000000000000000000000000000000000000000000000000000000145b80610597575061059782611579565b90505b919050565b6060600080546105ae90612b1f565b80601f01602080910402602001604051908101604052809291908181526020018280546105da90612b1f565b80156106275780601f106105fc57610100808354040283529160200191610627565b820191906000526020600020905b81548152906001019060200180831161060a57829003601f168201915b5050505050905090565b600061063c826115ab565b6106645760405160e560020a62461bcd02815260040161065b90612880565b60405180910390fd5b50600090815260046020526040902054600160a060020a031690565b600061068b82610aa7565b905080600160a060020a031683600160a060020a031614156106c25760405160e560020a62461bcd02815260040161065b906129cc565b80600160a060020a03166106d46115c8565b600160a060020a031614806106f057506106f0816104d86115c8565b61070f5760405160e560020a62461bcd02815260040161065b90612734565b61071983836115cc565b505050565b3361072882610aa7565b600160a060020a03161461073b57600080fd5b6000600d82815481106107615760e060020a634e487b7102600052603260045260246000fd5b6000918252602082206003600890920201908101805491935060ff9091169161078983612b78565b91906101000a81548160ff021916908360ff160217905550505050565b606060006107b383610adf565b67ffffffffffffffff8111156107dc5760e060020a634e487b7102600052604160045260246000fd5b60405190808252806020026020018201604052801561081557816020015b610802611f67565b8152602001906001900390816107fa5790505b5090506000805b600d548110156109bf5784600160a060020a031661083982610aa7565b600160a060020a031614156109ad57600d818154811061086c5760e060020a634e487b7102600052603260045260246000fd5b90600052602060002090600802016040518061012001604052908160008201805461089690612b1f565b80601f01602080910402602001604051908101604052809291908181526020018280546108c290612b1f565b801561090f5780601f106108e45761010080835404028352916020019161090f565b820191906000526020600020905b8154815290600101906020018083116108f257829003601f168201915b50505091835250506001820154602082015260028201546040820152600382015460ff808216606084015261010091829004166080830152600483015460a0830152600583015460c0830152600683015460e083015260079092015491015283518490849081106109935760e060020a634e487b7102600052603260045260246000fd5b602002602001018190525081806109a990612b5d565b9250505b806109b781612b5d565b91505061081c565b50909392505050565b6109d96109d36115c8565b82611647565b6109f85760405160e560020a62461bcd02815260040161065b90612a29565b6107198383836116cf565b610a0b6115c8565b600160a060020a0316610a1c610de0565b600160a060020a031614610a455760405160e560020a62461bcd02815260040161065b906128dd565b6000610a4f610de0565b604051909150600160a060020a03821690303180156108fc02916000818181858888f19350505050158015610a88573d6000803e3d6000fd5b5050565b61071983838360405180602001604052806000815250610ecf565b600081815260026020526040812054600160a060020a0316806105975760405160e560020a62461bcd02815260040161065b906127ee565b6000600160a060020a038216610b0a5760405160e560020a62461bcd02815260040161065b90612791565b50600160a060020a031660009081526003602052604090205490565b610b2e6115c8565b600160a060020a0316610b3f610de0565b600160a060020a031614610b685760405160e560020a62461bcd02815260040161065b906128dd565b610b72600061180f565b565b60606000610b8183610adf565b600754610b8e9190612adc565b67ffffffffffffffff811115610bb75760e060020a634e487b7102600052604160045260246000fd5b604051908082528060200260200182016040528015610bf057816020015b610bdd611f67565b815260200190600190039081610bd55790505b5090506000805b600d548110156109bf5784600160a060020a0316610c1482610aa7565b600160a060020a031614610d8757600d8181548110610c465760e060020a634e487b7102600052603260045260246000fd5b906000526020600020906008020160405180610120016040529081600082018054610c7090612b1f565b80601f0160208091040260200160405190810160405280929190818152602001828054610c9c90612b1f565b8015610ce95780601f10610cbe57610100808354040283529160200191610ce9565b820191906000526020600020905b815481529060010190602001808311610ccc57829003601f168201915b50505091835250506001820154602082015260028201546040820152600382015460ff808216606084015261010091829004166080830152600483015460a0830152600583015460c0830152600683015460e08301526007909201549101528351849084908110610d6d5760e060020a634e487b7102600052603260045260246000fd5b60200260200101819052508180610d8390612b5d565b9250505b80610d9181612b5d565b915050610bf7565b610da16115c8565b600160a060020a0316610db2610de0565b600160a060020a031614610ddb5760405160e560020a62461bcd02815260040161065b906128dd565b600855565b600654600160a060020a031690565b6060600180546105ae90612b1f565b610e066115c8565b600160a060020a031682600160a060020a03161415610e3a5760405160e560020a62461bcd02815260040161065b906126a0565b8060056000610e476115c8565b600160a060020a03908116825260208083019390935260409182016000908120918716808252919093529120805460ff191692151592909217909155610e8b6115c8565b600160a060020a03167f17307eab39ab6107e8899845ad3d59bd9653f200f220920489ca2b5937696c3183604051610ec391906124da565b60405180910390a35050565b610ee0610eda6115c8565b83611647565b610eff5760405160e560020a62461bcd02815260040161065b90612a29565b610f0b8484848461186e565b50505050565b6060610f1c826115ab565b610f3b5760405160e560020a62461bcd02815260040161065b9061296f565b6000610f456118a4565b90506000815111610f655760405180602001604052806000815250610f90565b80610f6f846118b6565b604051602001610f809291906123a7565b6040516020818303038152906040525b9392505050565b610f9f611f67565b6007548210610fad57600080fd5b600d8281548110610fd15760e060020a634e487b7102600052603260045260246000fd5b906000526020600020906008020160405180610120016040529081600082018054610ffb90612b1f565b80601f016020809104026020016040519081016040528092919081815260200182805461102790612b1f565b80156110745780601f1061104957610100808354040283529160200191611074565b820191906000526020600020905b81548152906001019060200180831161105757829003601f168201915b50505091835250506001820154602082015260028201546040820152600382015460ff808216606084015261010091829004166080830152600483015460a0830152600583015460c0830152600683015460e083015260079092015491015292915050565b6000600d83815481106110ff5760e060020a634e487b7102600052603260045260246000fd5b906000526020600020906008020190506000600d83815481106111355760e060020a634e487b7102600052603260045260246000fd5b9060005260206000209060080201905060006111516064611a2a565b9050600a5481116112005760048301805490600061116e83612b5d565b909155505060058201805490600061118583612b5d565b909155505060038301805460ff1690600061119f83612b78565b91906101000a81548160ff021916908360ff160217905550508260060160008154809291906111cd90612b5d565b90915550506006820180549060006111e483612b5d565b91905055506111fb83600101548360020154611a7b565b61126e565b60058301805490600061121283612b5d565b909155505060048201805490600061122983612b5d565b909155505060068301805490600061124083612b5d565b909155505060068201805490600061125783612b5d565b919050555061126e82600101548460020154611a7b565b5050505050565b60085490565b600d818154811061128b57600080fd5b90600052602060002090600802016000915090508060000180546112ae90612b1f565b80601f01602080910402602001604051908101604052809291908181526020018280546112da90612b1f565b80156113275780601f106112fc57610100808354040283529160200191611327565b820191906000526020600020905b81548152906001019060200180831161130a57829003601f168201915b5050506001840154600285015460038601546004870154600588015460068901546007909901549798949793965060ff808416965061010090930490921693909289565b600160a060020a03918216600090815260056020908152604080832093909416825291909152205460ff1690565b6113a16115c8565b600160a060020a03166113b2610de0565b600160a060020a0316146113db5760405160e560020a62461bcd02815260040161065b906128dd565b600160a060020a0381166114045760405160e560020a62461bcd02815260040161065b906125af565b61140d8161180f565b50565b6060600d805480602002602001604051908101604052809291908181526020016000905b8282101561155857838290600052602060002090600802016040518061012001604052908160008201805461146890612b1f565b80601f016020809104026020016040519081016040528092919081815260200182805461149490612b1f565b80156114e15780601f106114b6576101008083540402835291602001916114e1565b820191906000526020600020905b8154815290600101906020018083116114c457829003601f168201915b505050918352505060018281015460208084019190915260028401546040840152600384015460ff808216606086015261010091829004166080850152600485015460a0850152600585015460c0850152600685015460e08501526007909401549390920192909252918352929092019101611434565b50505050905090565b60085434101561157057600080fd5b61140d81611aed565b600160e060020a031981167f01ffc9a70000000000000000000000000000000000000000000000000000000014919050565b600090815260026020526040902054600160a060020a0316151590565b3390565b6000818152600460205260409020805473ffffffffffffffffffffffffffffffffffffffff1916600160a060020a038416908117909155819061160e82610aa7565b600160a060020a03167f8c5be1e5ebec7d5bd14f71427d1e84f3dd0314c0f7b2291e5b200ac8c7c3b92560405160405180910390a45050565b6000611652826115ab565b6116715760405160e560020a62461bcd02815260040161065b906126d7565b600061167c83610aa7565b905080600160a060020a031684600160a060020a031614806116b7575083600160a060020a03166116ac84610631565b600160a060020a0316145b806116c757506116c7818561136b565b949350505050565b82600160a060020a03166116e282610aa7565b600160a060020a03161461170b5760405160e560020a62461bcd02815260040161065b90612912565b600160a060020a0382166117345760405160e560020a62461bcd02815260040161065b90612643565b61173f838383610719565b61174a6000826115cc565b600160a060020a0383166000908152600360205260408120805460019290611773908490612adc565b9091555050600160a060020a03821660009081526003602052604081208054600192906117a1908490612ab0565b9091555050600081815260026020526040808220805473ffffffffffffffffffffffffffffffffffffffff1916600160a060020a0386811691821790925591518493918716917fddf252ad1be2c89b69c2b068fc378daa952ba7f163c4a11628f55a4df523b3ef91a4505050565b60068054600160a060020a0383811673ffffffffffffffffffffffffffffffffffffffff19831681179093556040519116919082907f8be0079c531659141344cd1fd0a4f28419497f9722a3daafe3b4186f6b6457e090600090a35050565b6118798484846116cf565b61188584848484611c92565b610f0b5760405160e560020a62461bcd02815260040161065b90612552565b60408051602081019091526000815290565b6060816118f7575060408051808201909152600181527f3000000000000000000000000000000000000000000000000000000000000000602082015261059a565b8160005b8115611921578061190b81612b5d565b915061191a9050600a83612ac8565b91506118fb565b60008167ffffffffffffffff81111561194d5760e060020a634e487b7102600052604160045260246000fd5b6040519080825280601f01601f191660200182016040528015611977576020820181803683370190505b5090505b84156116c75761198c600183612adc565b9150611999600a86612b98565b6119a4906030612ab0565b7f0100000000000000000000000000000000000000000000000000000000000000028183815181106119e95760e060020a634e487b7102600052603260045260246000fd5b60200101907effffffffffffffffffffffffffffffffffffffffffffffffffffffffffffff1916908160001a905350611a23600a86612ac8565b945061197b565b6009805460009182611a3b83612b5d565b9091555060098190556040518391611a5991429133916020016123fc565b60408051601f1981840301815291905280516020909101206105979190612b98565b6000600d8381548110611aa15760e060020a634e487b7102600052603260045260246000fd5b90600052602060002090600802019050600c5482611abf9190612b98565b915060006002838360020154611ad59190612ab0565b611adf9190612ac8565b600290920191909155505050565b6000611af96064611de5565b90506000611b0d662386f26fc10000611de5565b905060006040518061012001604052808581526020016007548152602001838152602001600160ff1681526020018460ff168152602001600081526020016000815260200160008152602001600b5442611b679190612ab0565b9052600d805460018101825560009190915281518051929350839260089092027fd7b6990105719101dabeb77144f2a3385c8033acd3af97e9423a695e81ad1eb50191611bbc91839160209190910190611fb9565b5060208201516001820155604082015160028201556060820151600382018054608085015160ff1990911660ff9384161761ff00191661010093909116830217905560a0830151600483015560c0830151600583015560e083015160068301559091015160079182015554611c32903390611e1f565b33600160a060020a03167fce59585ad7228205f5944c7bd32743f9410d140b57dd32e4df4bf3b4f65fbc2f60075484604051611c6f929190612aa2565b60405180910390a260078054906000611c8783612b5d565b919050555050505050565b6000611ca684600160a060020a0316611e39565b15611dda5783600160a060020a031663150b7a02611cc26115c8565b8786866040518563ffffffff167c0100000000000000000000000000000000000000000000000000000000028152600401611d00949392919061243e565b602060405180830381600087803b158015611d1a57600080fd5b505af1925050508015611d4a575060408051601f3d908101601f19168201909252611d4791810190612258565b60015b611da7573d808015611d78576040519150601f19603f3d011682016040523d82523d6000602084013e611d7d565b606091505b508051611d9f5760405160e560020a62461bcd02815260040161065b90612552565b805181602001fd5b600160e060020a0319167f150b7a02000000000000000000000000000000000000000000000000000000001490506116c7565b506001949350505050565b6000804233604051602001611dfb9291906123d6565b60408051601f1981840301815291905280516020909101209050610f908382612b98565b610a88828260405180602001604052806000815250611e3f565b3b151590565b611e498383611e75565b611e566000848484611c92565b6107195760405160e560020a62461bcd02815260040161065b90612552565b600160a060020a038216611e9e5760405160e560020a62461bcd02815260040161065b9061284b565b611ea7816115ab565b15611ec75760405160e560020a62461bcd02815260040161065b9061260c565b611ed360008383610719565b600160a060020a0382166000908152600360205260408120805460019290611efc908490612ab0565b9091555050600081815260026020526040808220805473ffffffffffffffffffffffffffffffffffffffff1916600160a060020a03861690811790915590518392907fddf252ad1be2c89b69c2b068fc378daa952ba7f163c4a11628f55a4df523b3ef908290a45050565b604051806101200160405280606081526020016000815260200160008152602001600060ff168152602001600060ff168152602001600081526020016000815260200160008152602001600081525090565b828054611fc590612b1f565b90600052602060002090601f016020900481019282611fe7576000855561202d565b82601f1061200057805160ff191683800117855561202d565b8280016001018555821561202d579182015b8281111561202d578251825591602001919060010190612012565b5061203992915061203d565b5090565b5b80821115612039576000815560010161203e565b600067ffffffffffffffff8084111561206d5761206d612bde565b604051601f8501601f19168101602001828111828210171561209157612091612bde565b6040528481529150818385018610156120a957600080fd5b8484602083013760006020868301015250509392505050565b8035600160a060020a038116811461059a57600080fd5b6000602082840312156120ea578081fd5b610f90826120c2565b60008060408385031215612105578081fd5b61210e836120c2565b915061211c602084016120c2565b90509250929050565b600080600060608486031215612139578081fd5b612142846120c2565b9250612150602085016120c2565b9150604084013590509250925092565b60008060008060808587031215612175578081fd5b61217e856120c2565b935061218c602086016120c2565b925060408501359150606085013567ffffffffffffffff8111156121ae578182fd5b8501601f810187136121be578182fd5b6121cd87823560208401612052565b91505092959194509250565b600080604083850312156121eb578182fd5b6121f4836120c2565b915060208301358015158114612208578182fd5b809150509250929050565b60008060408385031215612225578182fd5b61222e836120c2565b946020939093013593505050565b60006020828403121561224d578081fd5b8135610f9081612bf7565b600060208284031215612269578081fd5b8151610f9081612bf7565b600060208284031215612285578081fd5b813567ffffffffffffffff81111561229b578182fd5b8201601f810184136122ab578182fd5b6116c784823560208401612052565b6000602082840312156122cb578081fd5b5035919050565b600080604083850312156122e4578182fd5b50508035926020909101359150565b6000815180845261230b816020860160208601612af3565b601f01601f19169290920160200192915050565b60006101208251818552612335828601826122f3565b915050602083015160208501526040830151604085015260ff6060840151166060850152608083015161236b60808601826123a0565b5060a083015160a085015260c083015160c085015260e083015160e08501526101008084015181860152508091505092915050565b60ff169052565b600083516123b9818460208801612af3565b8351908301906123cd818360208801612af3565b01949350505050565b918252600160a060020a03166c0100000000000000000000000002602082015260340190565b928352600160a060020a03919091166c01000000000000000000000000026020830152603482015260540190565b600160a060020a0391909116815260200190565b6000600160a060020a0380871683528086166020840152508360408301526080606083015261247060808301846122f3565b9695505050505050565b6000602080830181845280855180835260408601915060408482028701019250838701855b828110156124cd57603f198886030184526124bb85835161231f565b9450928501929085019060010161249f565b5092979650505050505050565b901515815260200190565b600060208252610f9060208301846122f3565b600061012080835261250c8184018d6122f3565b602084019b909b525050604081019790975260ff958616606088015293909416608086015260a085019190915260c084015260e083019190915261010090910152919050565b60208082526032908201527f4552433732313a207472616e7366657220746f206e6f6e20455243373231526560408201527f63656976657220696d706c656d656e7465720000000000000000000000000000606082015260800190565b60208082526026908201527f4f776e61626c653a206e6577206f776e657220697320746865207a65726f206160408201527f6464726573730000000000000000000000000000000000000000000000000000606082015260800190565b6020808252601c908201527f4552433732313a20746f6b656e20616c7265616479206d696e74656400000000604082015260600190565b60208082526024908201527f4552433732313a207472616e7366657220746f20746865207a65726f2061646460408201527f7265737300000000000000000000000000000000000000000000000000000000606082015260800190565b60208082526019908201527f4552433732313a20617070726f766520746f2063616c6c657200000000000000604082015260600190565b6020808252602c908201527f4552433732313a206f70657261746f7220717565727920666f72206e6f6e657860408201527f697374656e7420746f6b656e0000000000000000000000000000000000000000606082015260800190565b60208082526038908201527f4552433732313a20617070726f76652063616c6c6572206973206e6f74206f7760408201527f6e6572206e6f7220617070726f76656420666f7220616c6c0000000000000000606082015260800190565b6020808252602a908201527f4552433732313a2062616c616e636520717565727920666f7220746865207a6560408201527f726f206164647265737300000000000000000000000000000000000000000000606082015260800190565b60208082526029908201527f4552433732313a206f776e657220717565727920666f72206e6f6e657869737460408201527f656e7420746f6b656e0000000000000000000000000000000000000000000000606082015260800190565b6020808252818101527f4552433732313a206d696e7420746f20746865207a65726f2061646472657373604082015260600190565b6020808252602c908201527f4552433732313a20617070726f76656420717565727920666f72206e6f6e657860408201527f697374656e7420746f6b656e0000000000000000000000000000000000000000606082015260800190565b6020808252818101527f4f776e61626c653a2063616c6c6572206973206e6f7420746865206f776e6572604082015260600190565b60208082526029908201527f4552433732313a207472616e73666572206f6620746f6b656e2074686174206960408201527f73206e6f74206f776e0000000000000000000000000000000000000000000000606082015260800190565b6020808252602f908201527f4552433732314d657461646174613a2055524920717565727920666f72206e6f60408201527f6e6578697374656e7420746f6b656e0000000000000000000000000000000000606082015260800190565b60208082526021908201527f4552433732313a20617070726f76616c20746f2063757272656e74206f776e6560408201527f7200000000000000000000000000000000000000000000000000000000000000606082015260800190565b60208082526031908201527f4552433732313a207472616e736665722063616c6c6572206973206e6f74206f60408201527f776e6572206e6f7220617070726f766564000000000000000000000000000000606082015260800190565b600060208252610f90602083018461231f565b90815260200190565b918252602082015260400190565b60008219821115612ac357612ac3612bac565b500190565b600082612ad757612ad7612bc5565b500490565b600082821015612aee57612aee612bac565b500390565b60005b83811015612b0e578181015183820152602001612af6565b83811115610f0b5750506000910152565b600281046001821680612b3357607f821691505b60208210811415612b575760e060020a634e487b7102600052602260045260246000fd5b50919050565b6000600019821415612b7157612b71612bac565b5060010190565b600060ff821660ff811415612b8f57612b8f612bac565b60010192915050565b600082612ba757612ba7612bc5565b500690565b60e060020a634e487b7102600052601160045260246000fd5b60e060020a634e487b7102600052601260045260246000fd5b60e060020a634e487b7102600052604160045260246000fd5b600160e060020a03198116811461140d57600080fdfea26469706673582212209c58b668dfb00fab3946d80743a1ac01aec939e2be377afddda9ab811045eaba64736f6c63430008000033",
  "immutableReferences": {},
  "source": "//SPDX-License-Identifier: MIT\r\n\r\npragma solidity \"0.8.0\";\r\n\r\nimport \"@openzeppelin/contracts/token/ERC721/ERC721.sol\";\r\nimport \"@openzeppelin/contracts/access/Ownable.sol\";\r\n\r\ncontract DragonToken is ERC721, Ownable {\r\n    constructor(string memory _name, string memory _symbol)\r\n        ERC721(_name, _symbol)\r\n    {}\r\n\r\n    uint256 COUNT;\r\n    uint256 fee = 0.01 ether;\r\n    uint256 randNonce = 0;\r\n    uint256 attackVictoryProbability = 70;\r\n    uint256 cooldownTime = 100 seconds;\r\n    uint256 dnaMod = 10**16;\r\n\r\n    struct Dragon {\r\n        string name;\r\n        uint256 id;\r\n        uint256 dna;\r\n        uint8 level;\r\n        uint8 rarity;\r\n        uint256 winCount;\r\n        uint256 lossCount;\r\n        uint256 totalBattles;\r\n        uint256 coolDonwnTime;\r\n    }\r\n\r\n    Dragon[] public dragons;\r\n\r\n    event NewDragon(address indexed owner, uint256 id, uint256 dna);\r\n\r\n    //helpers\r\n    function updateFees(uint256 _fee) public onlyOwner {\r\n        fee = _fee;\r\n    }\r\n\r\n    function getFee() public view returns (uint256) {\r\n        return fee;\r\n    }\r\n\r\n    function _createRandomNumber(uint256 _mod) internal view returns (uint256) {\r\n        uint256 randomNumber;\r\n        randomNumber = uint256(\r\n            keccak256(abi.encodePacked(block.timestamp, msg.sender))\r\n        );\r\n        return randomNumber % _mod;\r\n    }\r\n\r\n    function randMod(uint256 _modulus) internal returns (uint256) {\r\n        randNonce = randNonce++;\r\n        return\r\n            uint256(\r\n                keccak256(\r\n                    abi.encodePacked(block.timestamp, msg.sender, randNonce)\r\n                )\r\n            ) % _modulus;\r\n    }\r\n\r\n    function withdraw() external payable onlyOwner {\r\n        address payable _owner = payable(owner());\r\n        _owner.transfer(address(this).balance);\r\n    }\r\n\r\n    //creator functions\r\n    function _createDragon(string memory _name) internal {\r\n        uint8 randomRarity = uint8(_createRandomNumber(100));\r\n        uint256 randomDNA = uint256(_createRandomNumber(10**16));\r\n        Dragon memory dragon = Dragon(\r\n            _name,\r\n            COUNT,\r\n            randomDNA,\r\n            1,\r\n            randomRarity,\r\n            0,\r\n            0,\r\n            0,\r\n            uint256(block.timestamp + cooldownTime)\r\n        );\r\n        dragons.push(dragon);\r\n        _safeMint(msg.sender, COUNT);\r\n        emit NewDragon(msg.sender, COUNT, randomDNA);\r\n        COUNT++;\r\n    }\r\n\r\n    function createRandomDragon(string memory _name) public payable {\r\n        require(msg.value >= fee);\r\n        _createDragon(_name);\r\n    }\r\n\r\n    //getters\r\n\r\n    function getDragonsOfNotUser(address _owner)\r\n        public\r\n        view\r\n        returns (Dragon[] memory)\r\n    {\r\n        Dragon[] memory notOwnerDragons = new Dragon[](\r\n            COUNT - balanceOf(_owner)\r\n        );\r\n        uint256 i = 0;\r\n        for (uint256 j = 0; j < dragons.length; j++) {\r\n            if (ownerOf(j) != _owner) {\r\n                notOwnerDragons[i] = dragons[j];\r\n                i++;\r\n            }\r\n        }\r\n        return notOwnerDragons;\r\n    }\r\n\r\n    function getDragonById(uint256 _id) public view returns (Dragon memory) {\r\n        require(_id < COUNT);\r\n        return dragons[_id];\r\n    }\r\n\r\n    function getDragons() public view returns (Dragon[] memory) {\r\n        return dragons;\r\n    }\r\n\r\n    function getOwnerDragons(address _owner)\r\n        public\r\n        view\r\n        returns (Dragon[] memory)\r\n    {\r\n        Dragon[] memory ownerDragons = new Dragon[](balanceOf(_owner));\r\n        uint256 i = 0;\r\n        for (uint256 j = 0; j < dragons.length; j++) {\r\n            if (ownerOf(j) == _owner) {\r\n                ownerDragons[i] = dragons[j];\r\n                i++;\r\n            }\r\n        }\r\n        return ownerDragons;\r\n    }\r\n\r\n    //modifiers\r\n    modifier onlyOwnerOf(uint256 _id) {\r\n        require(ownerOf(_id) == msg.sender);\r\n        _;\r\n    }\r\n\r\n    //Game Logics\r\n    function _triggerCooldown(Dragon storage _dragon) internal {\r\n        _dragon.coolDonwnTime = uint32(block.timestamp + cooldownTime);\r\n    }\r\n\r\n    function _isReady(Dragon storage _dragon) internal view returns (bool) {\r\n        return _dragon.coolDonwnTime <= uint32(block.timestamp);\r\n    }\r\n\r\n    function evolveDragon(uint256 _dragonId, uint256 _targetDna) internal {\r\n        Dragon storage dragon = dragons[_dragonId];\r\n        _targetDna = _targetDna % dnaMod;\r\n        uint256 newDna = (dragon.dna + _targetDna) / 2;\r\n        dragon.dna = newDna;\r\n    }\r\n\r\n    function levelUp(uint256 _id) public {\r\n        require(ownerOf(_id) == msg.sender);\r\n        Dragon storage dragon = dragons[_id];\r\n        dragon.level++;\r\n    }\r\n\r\n    function fight(uint256 _attackerId, uint256 _defenderId) public {\r\n        Dragon storage attacker = dragons[_attackerId];\r\n        Dragon storage defender = dragons[_defenderId];\r\n        uint256 rand = randMod(100);\r\n        if (rand <= attackVictoryProbability) {\r\n            attacker.winCount++;\r\n            defender.lossCount++;\r\n            attacker.level++;\r\n            attacker.totalBattles++;\r\n            defender.totalBattles++;\r\n            evolveDragon(attacker.id, defender.dna);\r\n        } else {\r\n            attacker.lossCount++;\r\n            defender.winCount++;\r\n            attacker.totalBattles++;\r\n            defender.totalBattles++;\r\n            evolveDragon(defender.id, attacker.dna);\r\n        }\r\n    }\r\n}\r\n",
  "sourcePath": "D:\\My projects\\DevProjs\\CRYPTO\\backToHacking\\nftdragons\\contracts\\DragonToken.sol",
  "compiler": {
    "name": "solc",
    "version": "0.8.0+commit.c7dfd78e.Emscripten.clang"
  },
  "schemaVersion": "3.4.3",
  "updatedAt": "2021-11-21T11:33:58.661Z",
  "networkType": "ethereum",
  "devdoc": {
    "kind": "dev",
    "methods": {
      "approve(address,uint256)": {
        "details": "See {IERC721-approve}."
      },
      "balanceOf(address)": {
        "details": "See {IERC721-balanceOf}."
      },
      "getApproved(uint256)": {
        "details": "See {IERC721-getApproved}."
      },
      "isApprovedForAll(address,address)": {
        "details": "See {IERC721-isApprovedForAll}."
      },
      "name()": {
        "details": "See {IERC721Metadata-name}."
      },
      "owner()": {
        "details": "Returns the address of the current owner."
      },
      "ownerOf(uint256)": {
        "details": "See {IERC721-ownerOf}."
      },
      "renounceOwnership()": {
        "details": "Leaves the contract without owner. It will not be possible to call `onlyOwner` functions anymore. Can only be called by the current owner. NOTE: Renouncing ownership will leave the contract without an owner, thereby removing any functionality that is only available to the owner."
      },
      "safeTransferFrom(address,address,uint256)": {
        "details": "See {IERC721-safeTransferFrom}."
      },
      "safeTransferFrom(address,address,uint256,bytes)": {
        "details": "See {IERC721-safeTransferFrom}."
      },
      "setApprovalForAll(address,bool)": {
        "details": "See {IERC721-setApprovalForAll}."
      },
      "supportsInterface(bytes4)": {
        "details": "See {IERC165-supportsInterface}."
      },
      "symbol()": {
        "details": "See {IERC721Metadata-symbol}."
      },
      "tokenURI(uint256)": {
        "details": "See {IERC721Metadata-tokenURI}."
      },
      "transferFrom(address,address,uint256)": {
        "details": "See {IERC721-transferFrom}."
      },
      "transferOwnership(address)": {
        "details": "Transfers ownership of the contract to a new account (`newOwner`). Can only be called by the current owner."
      }
    },
    "version": 1
  },
  "userdoc": {
    "kind": "user",
    "methods": {},
    "version": 1
  }
}